{
  "contractName": "Todo",
  "abi": [
    {
      "inputs": [],
      "stateMutability": "nonpayable",
      "type": "constructor"
    },
    {
      "anonymous": false,
      "inputs": [
        {
          "indexed": false,
          "internalType": "uint256",
          "name": "",
          "type": "uint256"
        },
        {
          "indexed": false,
          "internalType": "uint256",
          "name": "",
          "type": "uint256"
        },
        {
          "indexed": false,
          "internalType": "string",
          "name": "",
          "type": "string"
        },
        {
          "indexed": false,
          "internalType": "string",
          "name": "",
          "type": "string"
        },
        {
          "indexed": false,
          "internalType": "bool",
          "name": "",
          "type": "bool"
        }
      ],
      "name": "TaskCreated",
      "type": "event"
    },
    {
      "inputs": [
        {
          "internalType": "string",
          "name": "_content",
          "type": "string"
        },
        {
          "internalType": "string",
          "name": "_author",
          "type": "string"
        }
      ],
      "name": "createTask",
      "outputs": [],
      "stateMutability": "nonpayable",
      "type": "function"
    },
    {
      "inputs": [],
      "name": "getTaskIds",
      "outputs": [
        {
          "internalType": "uint256[]",
          "name": "",
          "type": "uint256[]"
        }
      ],
      "stateMutability": "view",
      "type": "function",
      "constant": true
    },
    {
      "inputs": [
        {
          "internalType": "uint256",
          "name": "id",
          "type": "uint256"
        }
      ],
      "name": "getTask",
      "outputs": [
        {
          "internalType": "uint256",
          "name": "",
          "type": "uint256"
        },
        {
          "internalType": "uint256",
          "name": "",
          "type": "uint256"
        },
        {
          "internalType": "string",
          "name": "",
          "type": "string"
        },
        {
          "internalType": "string",
          "name": "",
          "type": "string"
        },
        {
          "internalType": "bool",
          "name": "",
          "type": "bool"
        }
      ],
      "stateMutability": "view",
      "type": "function",
      "constant": true
    }
  ],
  "bytecode": "0x608060405234801561001057600080fd5b5060008081905550610ba1806100276000396000f3fe608060405234801561001057600080fd5b50600436106100415760003560e01c80631d65e77e14610046578063292a45851461007a578063bcd1480514610096575b600080fd5b610060600480360381019061005b9190610441565b6100b4565b604051610071959493929190610528565b60405180910390f35b610094600480360381019061008f91906106be565b610274565b005b61009e61039f565b6040516100ab91906107f4565b60405180910390f35b60008060608060008560006002600083815260200190815260200160002060000154036100e057600080fd5b866002600089815260200190815260200160002060010154600260008a8152602001908152602001600020600201600260008b8152602001908152602001600020600301600260008c815260200190815260200160002060040160009054906101000a900460ff1682805461015490610845565b80601f016020809104026020016040519081016040528092919081815260200182805461018090610845565b80156101cd5780601f106101a2576101008083540402835291602001916101cd565b820191906000526020600020905b8154815290600101906020018083116101b057829003601f168201915b505050505092508180546101e090610845565b80601f016020809104026020016040519081016040528092919081815260200182805461020c90610845565b80156102595780601f1061022e57610100808354040283529160200191610259565b820191906000526020600020905b81548152906001019060200180831161023c57829003601f168201915b50505050509150955095509550955095505091939590929450565b600080815480929190610286906108a5565b91905055506040518060a001604052806000548152602001428152602001838152602001828152602001600015158152506002600080548152602001908152602001600020600082015181600001556020820151816001015560408201518160020190816102f49190610a99565b50606082015181600301908161030a9190610a99565b5060808201518160040160006101000a81548160ff021916908315150217905550905050600160005490806001815401808255809150506001900390600052602060002001600090919091909150557fb322bdd3250d405f7845d27fa1f0753f8f7e18e40886bc254b89005c3e9c03246000544284846000604051610393959493929190610528565b60405180910390a15050565b606060018054806020026020016040519081016040528092919081815260200182805480156103ed57602002820191906000526020600020905b8154815260200190600101908083116103d9575b5050505050905090565b6000604051905090565b600080fd5b600080fd5b6000819050919050565b61041e8161040b565b811461042957600080fd5b50565b60008135905061043b81610415565b92915050565b60006020828403121561045757610456610401565b5b60006104658482850161042c565b91505092915050565b6104778161040b565b82525050565b600081519050919050565b600082825260208201905092915050565b60005b838110156104b757808201518184015260208101905061049c565b60008484015250505050565b6000601f19601f8301169050919050565b60006104df8261047d565b6104e98185610488565b93506104f9818560208601610499565b610502816104c3565b840191505092915050565b60008115159050919050565b6105228161050d565b82525050565b600060a08201905061053d600083018861046e565b61054a602083018761046e565b818103604083015261055c81866104d4565b9050818103606083015261057081856104d4565b905061057f6080830184610519565b9695505050505050565b600080fd5b600080fd5b7f4e487b7100000000000000000000000000000000000000000000000000000000600052604160045260246000fd5b6105cb826104c3565b810181811067ffffffffffffffff821117156105ea576105e9610593565b5b80604052505050565b60006105fd6103f7565b905061060982826105c2565b919050565b600067ffffffffffffffff82111561062957610628610593565b5b610632826104c3565b9050602081019050919050565b82818337600083830152505050565b600061066161065c8461060e565b6105f3565b90508281526020810184848401111561067d5761067c61058e565b5b61068884828561063f565b509392505050565b600082601f8301126106a5576106a4610589565b5b81356106b584826020860161064e565b91505092915050565b600080604083850312156106d5576106d4610401565b5b600083013567ffffffffffffffff8111156106f3576106f2610406565b5b6106ff85828601610690565b925050602083013567ffffffffffffffff8111156107205761071f610406565b5b61072c85828601610690565b9150509250929050565b600081519050919050565b600082825260208201905092915050565b6000819050602082019050919050565b61076b8161040b565b82525050565b600061077d8383610762565b60208301905092915050565b6000602082019050919050565b60006107a182610736565b6107ab8185610741565b93506107b683610752565b8060005b838110156107e75781516107ce8882610771565b97506107d983610789565b9250506001810190506107ba565b5085935050505092915050565b6000602082019050818103600083015261080e8184610796565b905092915050565b7f4e487b7100000000000000000000000000000000000000000000000000000000600052602260045260246000fd5b6000600282049050600182168061085d57607f821691505b6020821081036108705761086f610816565b5b50919050565b7f4e487b7100000000000000000000000000000000000000000000000000000000600052601160045260246000fd5b60006108b08261040b565b91507fffffffffffffffffffffffffffffffffffffffffffffffffffffffffffffffff82036108e2576108e1610876565b5b600182019050919050565b60008190508160005260206000209050919050565b60006020601f8301049050919050565b600082821b905092915050565b60006008830261094f7fffffffffffffffffffffffffffffffffffffffffffffffffffffffffffffffff82610912565b6109598683610912565b95508019841693508086168417925050509392505050565b6000819050919050565b600061099661099161098c8461040b565b610971565b61040b565b9050919050565b6000819050919050565b6109b08361097b565b6109c46109bc8261099d565b84845461091f565b825550505050565b600090565b6109d96109cc565b6109e48184846109a7565b505050565b5b81811015610a08576109fd6000826109d1565b6001810190506109ea565b5050565b601f821115610a4d57610a1e816108ed565b610a2784610902565b81016020851015610a36578190505b610a4a610a4285610902565b8301826109e9565b50505b505050565b600082821c905092915050565b6000610a7060001984600802610a52565b1980831691505092915050565b6000610a898383610a5f565b9150826002028217905092915050565b610aa28261047d565b67ffffffffffffffff811115610abb57610aba610593565b5b610ac58254610845565b610ad0828285610a0c565b600060209050601f831160018114610b035760008415610af1578287015190505b610afb8582610a7d565b865550610b63565b601f198416610b11866108ed565b60005b82811015610b3957848901518255600182019150602085019450602081019050610b14565b86831015610b565784890151610b52601f891682610a5f565b8355505b6001600288020188555050505b50505050505056fea26469706673582212201b6982114eac6f1f6dd55cefca75348baf3ff8e388591a125b983c231980d74a64736f6c63430008120033",
  "immutableReferences": {},
  "source": "// SPDX-License-Identifier: MIT\npragma solidity ^0.8.18;\n\ncontract Todo {\n  struct Task {\n    uint id;\n    uint date;\n    string content;\n    string author;\n    bool done;\n  }\n\n  uint lastTaskId;\n  uint[] taskIds;\n  mapping(uint => Task) tasks;\n\n  event TaskCreated(uint, uint, string, string, bool);\n\n  constructor() {\n    lastTaskId = 0;\n  }\n\n  function createTask(string memory _content, string memory _author) public {\n    lastTaskId++;\n    tasks[lastTaskId] = Task(lastTaskId, block.timestamp, _content, _author, false);\n    taskIds.push(lastTaskId);\n    emit TaskCreated(lastTaskId, block.timestamp, _content, _author, false);\n  }\n\n  function getTaskIds() public view returns (uint[] memory) {\n    return taskIds;\n  }\n\n  function getTask(uint id) public view tasksExists(id)\n    returns (\n      uint,\n      uint,\n      string memory,\n      string memory,\n      bool\n    )\n  {\n    return (\n      id,\n      tasks[id].date,\n      tasks[id].content,\n      tasks[id].author,\n      tasks[id].done\n    );\n  }\n\n  modifier tasksExists(uint id) {\n    if (tasks[id].id == 0) {\n      revert();\n    }\n    _;\n  }\n}\n",
  "sourcePath": "C:\\Users\\redac\\OneDrive\\Bureau\\TodoList\\contracts\\Todo.sol",
  "compiler": {
    "name": "solc",
    "version": "0.8.18+commit.87f61d96.Emscripten.clang"
  },
  "schemaVersion": "3.4.16",
  "updatedAt": "2023-10-27T16:47:13.243Z",
  "networkType": "ethereum",
  "devdoc": {
    "kind": "dev",
    "methods": {},
    "version": 1
  },
  "userdoc": {
    "kind": "user",
    "methods": {},
    "version": 1
  }
}